{
  "_format": "hh-sol-artifact-1",
  "contractName": "Upload",
  "sourceName": "contracts/upload.sol",
  "abi": [
    {
      "inputs": [
        {
          "internalType": "address",
          "name": "_user",
          "type": "address"
        },
        {
          "internalType": "string",
          "name": "url",
          "type": "string"
        }
      ],
      "name": "addImageUrl",
      "outputs": [],
      "stateMutability": "nonpayable",
      "type": "function"
    },
    {
      "inputs": [
        {
          "internalType": "address",
          "name": "_user",
          "type": "address"
        }
      ],
      "name": "getImageUrls",
      "outputs": [
        {
          "internalType": "string[]",
          "name": "",
          "type": "string[]"
        }
      ],
      "stateMutability": "view",
      "type": "function"
    }
  ],
  "bytecode": "0x608060405234801561001057600080fd5b506107ec806100206000396000f3fe608060405234801561001057600080fd5b50600436106100365760003560e01c806311529e891461003b578063544279ad1461006b575b600080fd5b6100556004803603810190610050919061039d565b610087565b6040516100629190610525565b60405180910390f35b6100856004803603810190610080919061067c565b61020c565b005b60603373ffffffffffffffffffffffffffffffffffffffff168273ffffffffffffffffffffffffffffffffffffffff16146100f7576040517f08c379a00000000000000000000000000000000000000000000000000000000081526004016100ee90610735565b60405180910390fd5b6000808373ffffffffffffffffffffffffffffffffffffffff1673ffffffffffffffffffffffffffffffffffffffff168152602001908152602001600020805480602002602001604051908101604052809291908181526020016000905b8282101561020157838290600052602060002001805461017490610784565b80601f01602080910402602001604051908101604052809291908181526020018280546101a090610784565b80156101ed5780601f106101c2576101008083540402835291602001916101ed565b820191906000526020600020905b8154815290600101906020018083116101d057829003601f168201915b505050505081526020019060010190610155565b505050509050919050565b6000808373ffffffffffffffffffffffffffffffffffffffff1673ffffffffffffffffffffffffffffffffffffffff16815260200190815260200160002081908060018154018082558091505060019003906000526020600020016000909190919091509080519060200190610283929190610288565b505050565b82805461029490610784565b90600052602060002090601f0160209004810192826102b657600085556102fd565b82601f106102cf57805160ff19168380011785556102fd565b828001600101855582156102fd579182015b828111156102fc5782518255916020019190600101906102e1565b5b50905061030a919061030e565b5090565b5b8082111561032757600081600090555060010161030f565b5090565b6000604051905090565b600080fd5b600080fd5b600073ffffffffffffffffffffffffffffffffffffffff82169050919050565b600061036a8261033f565b9050919050565b61037a8161035f565b811461038557600080fd5b50565b60008135905061039781610371565b92915050565b6000602082840312156103b3576103b2610335565b5b60006103c184828501610388565b91505092915050565b600081519050919050565b600082825260208201905092915050565b6000819050602082019050919050565b600081519050919050565b600082825260208201905092915050565b60005b83811015610430578082015181840152602081019050610415565b8381111561043f576000848401525b50505050565b6000601f19601f8301169050919050565b6000610461826103f6565b61046b8185610401565b935061047b818560208601610412565b61048481610445565b840191505092915050565b600061049b8383610456565b905092915050565b6000602082019050919050565b60006104bb826103ca565b6104c581856103d5565b9350836020820285016104d7856103e6565b8060005b8581101561051357848403895281516104f4858261048f565b94506104ff836104a3565b925060208a019950506001810190506104db565b50829750879550505050505092915050565b6000602082019050818103600083015261053f81846104b0565b905092915050565b600080fd5b600080fd5b7f4e487b7100000000000000000000000000000000000000000000000000000000600052604160045260246000fd5b61058982610445565b810181811067ffffffffffffffff821117156105a8576105a7610551565b5b80604052505050565b60006105bb61032b565b90506105c78282610580565b919050565b600067ffffffffffffffff8211156105e7576105e6610551565b5b6105f082610445565b9050602081019050919050565b82818337600083830152505050565b600061061f61061a846105cc565b6105b1565b90508281526020810184848401111561063b5761063a61054c565b5b6106468482856105fd565b509392505050565b600082601f83011261066357610662610547565b5b813561067384826020860161060c565b91505092915050565b6000806040838503121561069357610692610335565b5b60006106a185828601610388565b925050602083013567ffffffffffffffff8111156106c2576106c161033a565b5b6106ce8582860161064e565b9150509250929050565b600082825260208201905092915050565b7f596f7520646f6e27742068617665206163636573730000000000000000000000600082015250565b600061071f6015836106d8565b915061072a826106e9565b602082019050919050565b6000602082019050818103600083015261074e81610712565b9050919050565b7f4e487b7100000000000000000000000000000000000000000000000000000000600052602260045260246000fd5b6000600282049050600182168061079c57607f821691505b602082108114156107b0576107af610755565b5b5091905056fea26469706673582212209b5c62857cc8265fa4597ae64cd589b3eca3834ed3f96f45f38839b264b9d00264736f6c63430008090033",
  "linkReferences": {},
  "deployedLinkReferences": {}
}