{
  "_format": "hh-sol-artifact-1",
  "contractName": "Upload",
  "sourceName": "contracts/upload.sol",
  "abi": [
    {
      "inputs": [
        {
          "internalType": "address",
          "name": "_user",
          "type": "address"
        },
        {
          "internalType": "string",
          "name": "url",
          "type": "string"
        }
      ],
      "name": "add",
      "outputs": [],
      "stateMutability": "nonpayable",
      "type": "function"
    },
    {
      "inputs": [
        {
          "internalType": "address",
          "name": "_user",
          "type": "address"
        }
      ],
      "name": "display",
      "outputs": [
        {
          "internalType": "string[]",
          "name": "",
          "type": "string[]"
        }
      ],
      "stateMutability": "view",
      "type": "function"
    }
  ],
  "bytecode": "0x608060405234801561001057600080fd5b506107ec806100206000396000f3fe608060405234801561001057600080fd5b50600436106100365760003560e01c806336d6da551461003b578063eb39113f14610057575b600080fd5b610055600480360381019061005091906104e3565b610087565b005b610071600480360381019061006c919061053f565b610103565b60405161007e91906106b6565b60405180910390f35b6000808373ffffffffffffffffffffffffffffffffffffffff1673ffffffffffffffffffffffffffffffffffffffff168152602001908152602001600020819080600181540180825580915050600190039060005260206000200160009091909190915090805190602001906100fe929190610288565b505050565b60603373ffffffffffffffffffffffffffffffffffffffff168273ffffffffffffffffffffffffffffffffffffffff1614610173576040517f08c379a000000000000000000000000000000000000000000000000000000000815260040161016a90610735565b60405180910390fd5b6000808373ffffffffffffffffffffffffffffffffffffffff1673ffffffffffffffffffffffffffffffffffffffff168152602001908152602001600020805480602002602001604051908101604052809291908181526020016000905b8282101561027d5783829060005260206000200180546101f090610784565b80601f016020809104026020016040519081016040528092919081815260200182805461021c90610784565b80156102695780601f1061023e57610100808354040283529160200191610269565b820191906000526020600020905b81548152906001019060200180831161024c57829003601f168201915b5050505050815260200190600101906101d1565b505050509050919050565b82805461029490610784565b90600052602060002090601f0160209004810192826102b657600085556102fd565b82601f106102cf57805160ff19168380011785556102fd565b828001600101855582156102fd579182015b828111156102fc5782518255916020019190600101906102e1565b5b50905061030a919061030e565b5090565b5b8082111561032757600081600090555060010161030f565b5090565b6000604051905090565b600080fd5b600080fd5b600073ffffffffffffffffffffffffffffffffffffffff82169050919050565b600061036a8261033f565b9050919050565b61037a8161035f565b811461038557600080fd5b50565b60008135905061039781610371565b92915050565b600080fd5b600080fd5b6000601f19601f8301169050919050565b7f4e487b7100000000000000000000000000000000000000000000000000000000600052604160045260246000fd5b6103f0826103a7565b810181811067ffffffffffffffff8211171561040f5761040e6103b8565b5b80604052505050565b600061042261032b565b905061042e82826103e7565b919050565b600067ffffffffffffffff82111561044e5761044d6103b8565b5b610457826103a7565b9050602081019050919050565b82818337600083830152505050565b600061048661048184610433565b610418565b9050828152602081018484840111156104a2576104a16103a2565b5b6104ad848285610464565b509392505050565b600082601f8301126104ca576104c961039d565b5b81356104da848260208601610473565b91505092915050565b600080604083850312156104fa576104f9610335565b5b600061050885828601610388565b925050602083013567ffffffffffffffff8111156105295761052861033a565b5b610535858286016104b5565b9150509250929050565b60006020828403121561055557610554610335565b5b600061056384828501610388565b91505092915050565b600081519050919050565b600082825260208201905092915050565b6000819050602082019050919050565b600081519050919050565b600082825260208201905092915050565b60005b838110156105d25780820151818401526020810190506105b7565b838111156105e1576000848401525b50505050565b60006105f282610598565b6105fc81856105a3565b935061060c8185602086016105b4565b610615816103a7565b840191505092915050565b600061062c83836105e7565b905092915050565b6000602082019050919050565b600061064c8261056c565b6106568185610577565b93508360208202850161066885610588565b8060005b858110156106a457848403895281516106858582610620565b945061069083610634565b925060208a0199505060018101905061066c565b50829750879550505050505092915050565b600060208201905081810360008301526106d08184610641565b905092915050565b600082825260208201905092915050565b7f596f7520646f6e27742068617665206163636573730000000000000000000000600082015250565b600061071f6015836106d8565b915061072a826106e9565b602082019050919050565b6000602082019050818103600083015261074e81610712565b9050919050565b7f4e487b7100000000000000000000000000000000000000000000000000000000600052602260045260246000fd5b6000600282049050600182168061079c57607f821691505b602082108114156107b0576107af610755565b5b5091905056fea26469706673582212204b45fa1c404a6a098d245eb2bc42467d1520ed6080bb7cf33b2776b99768d95c64736f6c63430008090033",
  "linkReferences": {},
  "deployedLinkReferences": {}
}