{
  "_format": "hh-sol-artifact-1",
  "contractName": "Upload",
  "sourceName": "contracts/upload.sol",
  "abi": [
    {
      "inputs": [
        {
          "internalType": "address",
          "name": "_user",
          "type": "address"
        },
        {
          "internalType": "string",
          "name": "url",
          "type": "string"
        }
      ],
      "name": "add",
      "outputs": [],
      "stateMutability": "nonpayable",
      "type": "function"
    },
    {
      "inputs": [
        {
          "internalType": "address",
          "name": "_user",
          "type": "address"
        }
      ],
      "name": "display",
      "outputs": [
        {
          "internalType": "string[]",
          "name": "",
          "type": "string[]"
        }
      ],
      "stateMutability": "view",
      "type": "function"
    },
    {
      "inputs": [],
      "name": "shareAccess",
      "outputs": [
        {
          "components": [
            {
              "internalType": "address",
              "name": "user",
              "type": "address"
            },
            {
              "internalType": "bool",
              "name": "access",
              "type": "bool"
            }
          ],
          "internalType": "struct Upload.Access[]",
          "name": "",
          "type": "tuple[]"
        }
      ],
      "stateMutability": "view",
      "type": "function"
    }
  ],
  "bytecode": "0x608060405234801561001057600080fd5b50610ad9806100206000396000f3fe608060405234801561001057600080fd5b50600436106100415760003560e01c806336d6da5514610046578063bc8bef8114610062578063eb39113f14610080575b600080fd5b610060600480360381019061005b91906106a6565b6100b0565b005b61006a61012c565b604051610077919061080a565b60405180910390f35b61009a6004803603810190610095919061082c565b610235565b6040516100a791906109a3565b60405180910390f35b6000808373ffffffffffffffffffffffffffffffffffffffff1673ffffffffffffffffffffffffffffffffffffffff1681526020019081526020016000208190806001815401808255809150506001900390600052602060002001600090919091909150908051906020019061012792919061044b565b505050565b6060600260003373ffffffffffffffffffffffffffffffffffffffff1673ffffffffffffffffffffffffffffffffffffffff168152602001908152602001600020805480602002602001604051908101604052809291908181526020016000905b8282101561022c578382906000526020600020016040518060400160405290816000820160009054906101000a900473ffffffffffffffffffffffffffffffffffffffff1673ffffffffffffffffffffffffffffffffffffffff1673ffffffffffffffffffffffffffffffffffffffff1681526020016000820160149054906101000a900460ff1615151515815250508152602001906001019061018d565b50505050905090565b60603373ffffffffffffffffffffffffffffffffffffffff168273ffffffffffffffffffffffffffffffffffffffff1614806102f75750600160008373ffffffffffffffffffffffffffffffffffffffff1673ffffffffffffffffffffffffffffffffffffffff16815260200190815260200160002060003373ffffffffffffffffffffffffffffffffffffffff1673ffffffffffffffffffffffffffffffffffffffff16815260200190815260200160002060009054906101000a900460ff165b610336576040517f08c379a000000000000000000000000000000000000000000000000000000000815260040161032d90610a22565b60405180910390fd5b6000808373ffffffffffffffffffffffffffffffffffffffff1673ffffffffffffffffffffffffffffffffffffffff168152602001908152602001600020805480602002602001604051908101604052809291908181526020016000905b828210156104405783829060005260206000200180546103b390610a71565b80601f01602080910402602001604051908101604052809291908181526020018280546103df90610a71565b801561042c5780601f106104015761010080835404028352916020019161042c565b820191906000526020600020905b81548152906001019060200180831161040f57829003601f168201915b505050505081526020019060010190610394565b505050509050919050565b82805461045790610a71565b90600052602060002090601f01602090048101928261047957600085556104c0565b82601f1061049257805160ff19168380011785556104c0565b828001600101855582156104c0579182015b828111156104bf5782518255916020019190600101906104a4565b5b5090506104cd91906104d1565b5090565b5b808211156104ea5760008160009055506001016104d2565b5090565b6000604051905090565b600080fd5b600080fd5b600073ffffffffffffffffffffffffffffffffffffffff82169050919050565b600061052d82610502565b9050919050565b61053d81610522565b811461054857600080fd5b50565b60008135905061055a81610534565b92915050565b600080fd5b600080fd5b6000601f19601f8301169050919050565b7f4e487b7100000000000000000000000000000000000000000000000000000000600052604160045260246000fd5b6105b38261056a565b810181811067ffffffffffffffff821117156105d2576105d161057b565b5b80604052505050565b60006105e56104ee565b90506105f182826105aa565b919050565b600067ffffffffffffffff8211156106115761061061057b565b5b61061a8261056a565b9050602081019050919050565b82818337600083830152505050565b6000610649610644846105f6565b6105db565b90508281526020810184848401111561066557610664610565565b5b610670848285610627565b509392505050565b600082601f83011261068d5761068c610560565b5b813561069d848260208601610636565b91505092915050565b600080604083850312156106bd576106bc6104f8565b5b60006106cb8582860161054b565b925050602083013567ffffffffffffffff8111156106ec576106eb6104fd565b5b6106f885828601610678565b9150509250929050565b600081519050919050565b600082825260208201905092915050565b6000819050602082019050919050565b61073781610522565b82525050565b60008115159050919050565b6107528161073d565b82525050565b60408201600082015161076e600085018261072e565b5060208201516107816020850182610749565b50505050565b60006107938383610758565b60408301905092915050565b6000602082019050919050565b60006107b782610702565b6107c1818561070d565b93506107cc8361071e565b8060005b838110156107fd5781516107e48882610787565b97506107ef8361079f565b9250506001810190506107d0565b5085935050505092915050565b6000602082019050818103600083015261082481846107ac565b905092915050565b600060208284031215610842576108416104f8565b5b60006108508482850161054b565b91505092915050565b600081519050919050565b600082825260208201905092915050565b6000819050602082019050919050565b600081519050919050565b600082825260208201905092915050565b60005b838110156108bf5780820151818401526020810190506108a4565b838111156108ce576000848401525b50505050565b60006108df82610885565b6108e98185610890565b93506108f98185602086016108a1565b6109028161056a565b840191505092915050565b600061091983836108d4565b905092915050565b6000602082019050919050565b600061093982610859565b6109438185610864565b93508360208202850161095585610875565b8060005b858110156109915784840389528151610972858261090d565b945061097d83610921565b925060208a01995050600181019050610959565b50829750879550505050505092915050565b600060208201905081810360008301526109bd818461092e565b905092915050565b600082825260208201905092915050565b7f596f7520646f6e27742068617665206163636573730000000000000000000000600082015250565b6000610a0c6015836109c5565b9150610a17826109d6565b602082019050919050565b60006020820190508181036000830152610a3b816109ff565b9050919050565b7f4e487b7100000000000000000000000000000000000000000000000000000000600052602260045260246000fd5b60006002820490506001821680610a8957607f821691505b60208210811415610a9d57610a9c610a42565b5b5091905056fea2646970667358221220754333206079e26987b734957299c2143c60e8be942f64cc6b6a6da665b73dc664736f6c63430008090033",
  "linkReferences": {},
  "deployedLinkReferences": {}
}